:02000002D0002C
:1040000000400D00FC700D00000006000C000501D2
:084010000401E80500000000B6
:04401800E46C0D0047
:10401C0009480A49884208B505D0094A824202D0AB
:10402C00121A02F0F1FD0748074A0021121A02F099
:10403C00F6FD014808BD00BF28E303206C700D009D
:10404C0090E3032090E30320F0E7032070B501F028
:10405C008BFD074C074BE41AA40800251E46A5420D
:10406C0004D056F8253098470135F8E770BD00BFED
:10407C0060700D0024700D0000F016B808B500F04B
:10408C0021F8BDE8084001F031BD00F0D9BB00F0CB
:10409C00DFBB00F0DDBB0078B0FA80F04009704760
:1040AC00012303707047000008B501F063FC4FF466
:1040BC00165101F053FC0248BDE8084000F0DEB890
:1040CC0094E3032010B52D488AB000F0C1F9062105
:1040DC0006A801F0E9FA06A9294801F0CCFA06A8CD
:1040EC0001F038FA254800F0C5F9062106A801F0C0
:1040FC00DBFA06A9234801F0BEFA06A801F02AFA59
:10410C00214906A801F06DFA1D4906A801F0FDFA37
:10411C001E4901F006FB1B4901F0F7FA1C4901F09E
:10412C0000FB014602A801F09BFA06A801F012FA66
:10413C00184B029A1B788DF8003017493C2306A8BF
:10414C0000F056FD079C7CB16368013B63605BB972
:10415C00236820469B689847A368013BA3601BB962
:10416C0023682046DB68984747F2305000F090FBFC
:10417C0002A801F0EFF90AB010BD00BF94E30320D0
:10418C00ACE30320BCE30320F86C0D00086D0D00BC
:10419C00166D0D00A8E30320186D0D00F8B5114B3A
:1041AC00114F124C124E134D01221A7000F0ACF943
:1041BC0006220221104800F05BF83946204601F037
:1041CC0010FA20460D4C3246294601F081FD394645
:1041DC00204601F006FA324629462046BDE8F84052
:1041EC0001F076BDA8E30320576E0D00ACE303206D
:1041FC0090E3032061550D0094E30320BCE30320FE
:10420C0010B503682F2B044604D9074A00210A2055
:10421C0000F072FA23681F2B83BF03F01F03236087
:10422C0002484FF0A04010BDF5440D0000030050B3
:10423C0007B502AB43F8040D1846FFF7E1FF019AEE
:10424C0001239340C0F8083503B05DF804FB07B5B3
:10425C0002AB43F8040D1846FFF7D2FFD0F8103527
:10426C00019823FA00F000F0010003B05DF804FBA4
:10427C0002720122817102747047000010B5002196
:10428C000446807901F0D2FC074AA37912681B011D
:10429C00D118D05C4B7803F01F0343EA4010FFF7B2
:1042AC00C7FF0023E36010BDCCE303202DE9F74FDB
:1042BC00044600F021F9E368834284BF0023E360E5
:1042CC00237C33B9E368C01AB0F5FA6F01D2012030
:1042DC00A8E00025554E257400F00EF9A37932683C
:1042EC00E0601B01D1182571E570A5706570257013
:1042FC00D05C4B7803F01F0343EA4010FFF798FFA4
:10430C00FA2000F0C5FA0121A07901F08FFCA37905
:10431C0032681B01D118D25C4B7802A803F01F0342
:10432C0043EA421340F8043DFFF76AFF019B4FF04C
:10433C00010808FA03F3C0F80C35142000F0A8FAB1
:10434C0000F058FEA37932681B01D118D05C4B7871
:10435C0003F01F0343EA4010FFF76AFF282000F028
:10436C00C3F82946A07901F061FC2F464FF0000BF1
:10437C00A37932681B01D11812F803A04B7803F013
:10438C001F0343EA4A1A5046FFF761FF5046FFF7F6
:10439C005EFF80455FFA8BF908D101200BF1010B10
:1043AC0000F0A2F8BBF1FF0FE2D1D946A379326835
:1043BC001B01D11812F803804B7803F01F0343EA5A
:1043CC0048184046FFF743FF4046FFF740FFB9F15E
:1043DC00FF0F5FFA80F814D0032D0ED9EB070CD425
:1043EC00FA080137A35C5B00DBB2A354217A494580
:1043FC003CBF43F00103A354FFB20135EDB2552D80
:10440C00B4D100F0F9FD272F0BD9227863782179EC
:10441C001344A2781344E2781344DBB299423FF47C
:10442C0056AF002003B0BDE8F08F00BFCCE30320F3
:10443C0010B50446FFF73AFF28B1A37800EE103A06
:10444C00B8EE400A10BD9FED010A10BD0000C07F00
:10445C00FFF7EEBF10B50446FFF728FF28B123780D
:10446C0000EE103AB8EE400A10BD9FED010A10BDE7
:10447C000000C07FFFF7EEBF08B500F045F8014B18
:10448C00186008BDCCE3032008B5024B1B689B6881
:10449C00019308BD4802030008B5024B1B681B6959
:1044AC00019308BD4802030008B5024B1B685B6909
:1044BC00019308BD4802030008B5024B1B685B6CF6
:1044CC00019308BD4802030008B5024B1B689B6CA6
:1044DC00019308BD4802030008B5024B1B685B68DA
:1044EC00019308BD1802030008B5024B1B68DB687A
:1044FC00019308BD1802030008B5024B1B685B69E9
:10450C00019308BD1802030008B5024B1B681B6819
:10451C00019308BD2C02030008B5024B1B689B6875
:10452C00019308BD2C02030008B5024B1B681B6AE3
:10453C00019308BD2C02030008B5024B1B685B6A93
:10454C00019308BD2C02030008B5024B1B681B6AC3
:10455C00019308BD2802030008B5024B1B685B6A77
:10456C00019308BD2802030008B5024B1B689B6A27
:10457C00019308BD2802030008B5024B1B68DB6AD7
:10458C00019308BD2802030008B5024B1B681B6B86
:10459C00019308BD2802030008B5024B1B685B6B36
:1045AC00019308BD2802030008B5024B1B681B6C65
:1045BC00019308BD2802030008B5024B1B685B6918
:1045CC00019308BD6402030008B5024B1B689B688D
:1045DC00019308BD6802030008B5024B1B68DB6839
:1045EC00019308BD6802030008B5024B1B68DB6928
:1045FC00019308BD3002030008B5024B1B681B6A0F
:10460C00019308BD3002030008B5024B1B681B6800
:10461C00019308BD3C02030008B5024B1B68DB6824
:10462C00019308BD3C02030008B5024B1B681B69D3
:10463C00019308BD3C02030008B5024B1B685B6983
:10464C00019308BD3C02030008B5024B1B689B6933
:10465C00019308BD3C02030008B5024B1B68DB69E3
:10466C00019308BD3C02030008B5024B1B681B6A92
:10467C00019308BD3C02030008B5024B1B689B6A02
:10468C00019308BD3C02030008B5024B1B681B6874
:10469C00019308BD4C02030008B5024B1B685B6814
:1046AC00019308BD4C02030008B5024B1B681B6943
:1046BC00019308BD4C02030008B5024B1B685B69F3
:1046CC00019308BD4C02030008B5024B1B689B69A3
:1046DC00019308BD4C02030008B5024B1B68DB6953
:1046EC00019308BD4C02030008B5024B1B681B6A02
:1046FC00019308BD4C02030008B5024B1B685B6BB1
:10470C00019308BD6002030008B5024B1B685B688F
:10471C00019308BD2002030008B5024B1B685B69BE
:10472C00019308BD2002030008B5024B1B68DB6C2B
:10473C00019308BD2002030008B5024B1B685B6D9A
:10474C00019308BD2002030008B5034B1B68D3F886
:10475C008830019308BD00002002030008B5034B0C
:10476C001B68D3F89430019308BD000020020300AD
:10477C0008B5024B1B685B69019308BD440203003A
:10478C0008B5024B1B681B6A019308BD4402030069
:10479C0008B5024B1B68DB6B019308BD4402030098
:1047AC0008B5024B1B685B68019308BD400203000F
:1047BC0008B5024B1B689B68019308BD40020300BF
:1047CC0008B5024B1B68DB68019308BD400203006F
:1047DC0008B5024B1B681B69019308BD400203001E
:1047EC0008B5024B1B685B69019308BD40020300CE
:1047FC0008B5024B1B689B69019308BD400203007E
:10480C0008B5024B1B68DB69019308BD400203002D
:10481C0008B5024B1B681B6A019308BD40020300DC
:10482C0008B5024B1B681B6B019308BD40020300CB
:10483C0008B5024B1B685B6B019308BD400203007B
:10484C0008B5024B1B681B68019308BD1C020300D2
:10485C0008B5024B1B685B68019308BD1C02030082
:10486C0008B5024B1B689B68019308BD1C02030032
:10487C0008B5024B1B68DB6A019308BD1C020300E0
:10488C0008B5024B1B681B6B019308BD1C0203008F
:10489C000021FFF741BF10B5836804460BB901F046
:1048AC0038FAC3689847A3681BB1032221462046F7
:1048BC00984720461021BDE8104001F00EBA10B503
:1048CC000446006808B1FFF7FFFD204610BD10B587
:1048DC00036804469B689847A368013BA3602BB907
:1048EC0023682046DB68BDE81040184710BD0B68F4
:1048FC00036013B15A6801325A60704710B5044610
:10490C00006828B14368013B43600BB9FFF7DFFF38
:10491C00204610BD10B5064C002320462360FFF73F
:10492C00CBFD2046034A0449BDE8104001F0D0B944
:10493C00D0E3032090E30320CB480D007047002008
:10494C00704710B51021044601F0C7F9204610BD80
:10495C0008B508B1FFF7F5FF08BD10B5836804462C
:10496C0013B1032201469847204610BD0022026075
:10497C0010B54FF69C728280B1F9044084808A8015
:10498C0002680C6804600A6010BD10B5044600682B
:10499C00FFF75EFF204610BD38B5C468F4B123782C
:1049AC00022B03D104F10C00FFF7EFFF656835B162
:1049BC002846FFF7D2FF1021284601F08EF9A56892
:1049CC0035B12846FFF7C9FF1021284601F085F9BB
:1049DC0020461421BDE8384001F07FB938BD13B52D
:1049EC00044691E8050000234B600B602060626078
:1049FC0001A801930093FFF781FF204602B010BD80
:104A0C00F7B50C4602AD54F8043B45F8083D064694
:104A1C000F4601A82146FFF76AFF29463046FFF7EB
:104A2C00DEFF01A8FFF76AFF2046FFF767FF384655
:104A3C00082101F052F9304603B0F0BD13B50B4616
:104A4C00044603C88DE8030093E8030084E80300E0
:104A5C009DE8030083E8030002B010BD38B50023C5
:104A6C000446036010200D46FFF70FFB28B101230D
:104A7C0043608360024B0360C5602060204638BDF4
:104A8C002C6D0D00826810B50AB901F042F9C368AB
:104A9C00BDE81040184708B5006800F11001FFF799
:104AAC00F1FF08BD826810B50AB901F032F9C3688C
:104ABC00BDE81040184708B5006800F11001FFF779
:104ACC00F1FF08BD38B5002383608B6804460D46A2
:104ADC002BB102229847EB68E360AB68A3602046D9
:104AEC0038BD0000F0B589B004686846FFF73EFF9A
:104AFC0000238DF808304FF00202D4E84F3F002B12
:104B0C0003D1C4E8412F0029F7D102D08DF8083029
:104B1C0063E014F10C0503D069462846FFF726FF25
:104B2C00BFF35F8F01236370002004F10803BFF310
:104B3C005F8F53E8006F43E80002002AF9D1BFF3FE
:104B4C005F8F002E49D0FFF7EFFD20B1294630468C
:104B5C00FFF798FF3AE0314602A8FFF7B3FFE06891
:104B6C00B4F9105008B102F093F806901020ADF88B
:104B7C001C50FFF78AFA0546E8B100278760182019
:104B8C00FFF783FA044688B10146876002A8FFF755
:104B9C0055FF049BA268A360059B049206A9E268DA
:104BAC00E36004F110000592FFF7E0FE0D4BEB60A3
:104BBC000D4B2C60AB6006A8FFF7E7FE02A8FFF7D1
:104BCC00CCFE002229460948FFF7B6FD3046FFF718
:104BDC00C4FE1021304601F080F86846FFF7D5FE80
:104BEC0009B0F0BDA34A0D00194D0D00A3480D00EE
:104BFC002DE9F04F8BB006460F46904699469DF82E
:104C0C0050A0FFF7B5FD07AD834630BB4FF62E73B2
:104C1C00059005A92846ADF81830FFF7A7FE14201B
:104C2C00FFF733FA044658B1022303700123437093
:104C3C00C0F804B0C0F808B029460C30FFF796FE57
:104C4C003046214640F8044BFFF708FF2846FFF793
:104C5C009CFE05A8FFF799FE52E000240C231420BB
:104C6C006C60AC600793FFF710FA014618B1047042
:104C7C0044704460846004A80391FFF7EFFE224B5C
:104C8C0008930820FFF701FA044628B1039B40F86B
:104C9C00043B04A9FFF72BFE00955FFA8AF34A4602
:104CAC00414638460994FFF76BFD20B9039B5B78AE
:104CBC0003F0FF0283B1039B059304A906A8FFF739
:104CCC0016FE05A93046FFF78AFE06A8FFF716FE6A
:104CDC0004A8FFF713FE13E04FF69C7305A903A875
:104CEC000592ADF81830FFF7FDFE05A8FFF74DFE55
:104CFC0005A80999FFF784FE06A8FFF7FFFDDAE780
:104D0C0030460BB0BDE8F08F894E0D00022AF8B585
:104D1C00044606D0032A17D0012A22D10B6803605F
:104D2C001FE018200E68FFF7B0F9054650B1314668
:104D3C00FFF7C8FE3069B6F9147008B101F0A8FF8E
:104D4C002861AF8225600CE0046854B104F11000B6
:104D5C00FFF71BFE2046FFF700FE1821204600F04F
:104D6C00BCFF0020F8BD38B5002383608B68044677
:104D7C000D462BB102229847EB68E360AB68A36049
:104D8C00204638BD022A70B5044606D0032A11D03D
:104D9C00012A18D10B68036015E014200E68FFF788
:104DAC0074F9054620B13146FFF7DDFF337C2B74D7
:104DBC00256008E0046834B12046FFF7CEFD1421CD
:104DCC00204600F08AFF002070BD0000F0B50023E3
:104DDC0087B00C46BFF35F8F50E8006F40E800329D
:104DEC00002AF9D1BFF35F8F002E3FD01846FFF792
:104DFC009BFC074620B121463046FFF753FE2EE0C0
:104E0C00314601A8FFF7AFFF23788DF8143010203E
:104E1C00FFF73BF90546D0B187601420FFF735F951
:104E2C00044678B18760014601A8FFF707FE039B93
:104E3C00A268A360049B0392E268E3609DF81430BF
:104E4C00049223740A4BEB600A4B2C60AB6001A8F4
:104E5C00FFF783FD002229460748FFF76DFC30461B
:104E6C00FFF77BFD1021304600F037FF07B0F0BD97
:104E7C00C34A0D00914D0D00A3480D0030B585B00F
:104E8C0004460D4668461146FFF7BAFD7CB124B2C4
:104E9C0028460DB101F0FCFE029002A96846ADF85F
:104EAC000C40FFF71FFE02A8FFF76FFD1DE00098F6
:104EBC008DF808404FF00102D0E84F3FA34203D1D8
:104ECC00C0E8412F0029F7D102D08DF808300CE052
:104EDC0010F10C014FF0010318BF0373BFF35F8F88
:104EEC00043000F8033CFFF771FF01A8FFF706FD43
:104EFC0005B030BD002211464068FFF789BC002286
:104F0C0011464068FFF794BC00224068FFF788BC4C
:104F1C00002281F001014068FFF772BC00231A46A1
:104F2C0019464068FFF764BC00231A4619464068CE
:104F3C00FFF756BC002211464068FFF749BC00221F
:104F4C0011464068FFF734BC002202214068FFF78D
:104F5C0037BC00231A464068FFF722BC024B0322E1
:104F6C005A60024A1A607047D4E30320486D0D0062
:104F7C007047F8B5064615460C468F18BC4206D04D
:104F8C00336814F8011B9B6830469847F6E72846AF
:104F9C00F8BD0022007CFFF7D7BA0021007CFFF798
:104FAC00DBBA0021007CFFF7DFBA0021007CFFF7A1
:104FBC00E3BA0021007CFFF7E7BA10B514210446D0
:104FCC0000F08BFE204610BD10B504460023636034
:104FDC004FF47A73A360044B217408462360114686
:104FEC00FFF7E2FA204610BD7C6D0D000021007C1D
:104FFC00FFF7D2BAFFF7A0BAFFF796BA704710B511
:10500C001821044600F069FE204610BDF0B5037D62
:10501C00062B8DB00E4600F104074FF0000402D0B1
:10502C0000F1080518E00CAD394605F8304D2F237A
:10503C002A460A20FFF7C0FA284601F044FE3368DE
:10504C000246DB682946304698470FE024B12E21F2
:10505C00304600F0D5F9044415F8011D0A223046FB
:10506C0000F0D1F9BD420444F0D120460DB0F0BDA2
:10507C0010B5054B0446112240F8043B002101F009
:10508C00CEFD204610BD00BFA46D0D000346074A9F
:10509C0010B543F8042B01F1100251F8044B43F8FE
:1050AC00044B9142F9D10A781A7010BDA46D0D0011
:1050BC0010B59DF8084044EA032343EA024242EA51
:1050CC00016104234160037510BD37B50D788B78F1
:1050DC004A78C97800912946FFF7EAFF03B030BD42
:1050EC00014B024A1A607047DCE30320236E0D006B
:1050FC00002211464068FFF78BBB00221146406826
:10510C00FFF796BB00224068FFF78ABB002281F0B4
:10511C0001014068FFF774BB00231A460121406867
:10512C00FFF766BB00231A4619464068FFF758BBC9
:10513C00002211464068FFF74BBB00221146406825
:10514C00FFF736BB002202214068FFF739BB002372
:10515C001A464068FFF724BB38B5054688B1046889
:10516C004CB1A3681BB1032221462046984710215D
:10517C00204600F0B2FD28461421BDE8384000F06E
:10518C00ACBD38BD10B103685B681847704710B5EB
:10519C0003680446BBB15868FFF776F978B9236801
:1051AC005A7C12B95868FFF777F923685868FFF7EB
:1051BC007BF920680023236028B1FFF7CDFF20681E
:1051CC0008B1FFF7C9FF204610BD38B50446D0F82A
:1051DC00C40108B1FEF75DFFD4F8C00108B1FFF7B8
:1051EC0073F9D4F8BC5135B12846FFF7D0FF042130
:1051FC00284600F072FD206808B1FFF7C3FF204677
:10520C0038BD000010B5044B044640F8083BFFF7CE
:10521C00DCFF204610BD00BF9C6E0D0038B50E4C57
:10522C000E4B23600025022304F5E4706360A56037
:10523C00C4F8C451C4F8C851FFF73EF9084BC4F880
:10524C00CC5184F8D05123602046064A0649BDE86B
:10525C00384000F03DBD00BFE0E30320D06E0D00F0
:10526C009C6E0D0090E3032011520D0000231A4692
:10527C004068FFF795BA002202214068FFF7A0BAF8
:10528C00002211464068FFF793BA0022114640688D
:10529C00FFF79EBA00231A4619464068FFF7A0BADA
:1052AC0000231A4619464068FFF7A2BA002281F083
:1052BC0001014068FFF7A4BA00224068FFF7B0BABA
:1052CC00002211464068FFF7B3BA0022114640682D
:1052DC00FFF79EBA2DE9F043002495B016460D4613
:1052EC000746FFF7C5FE214620220CA8009401F0CA
:1052FC0096FC40230C9321466B460CAA3046FFF7D4
:10530C006BF90446002844D1024601216868FFF776
:10531C005FFA0221804622466868FFF759FA009E20
:10532C0081462146002E34D0002932D17368022BDD
:10533C0002D00A2B09D02AE0B8F1000F27D07169EE
:10534C0038460431FFF7C1FE20E0B9F1000F1ED042
:10535C007469112201A801F062FC06238DF8143047
:10536C0001AD04F108031834186859682A4603C2C1
:10537C000833A3421546F7D101A906A807ADFFF7DC
:10538C0085FE0FCD3C1D0FC42B6823700121F669DF
:10539C00C8E70098FFF718F9384615B0BDE8F08358
:1053AC00024B034A1A6000225A607047B4E503208E
:1053BC00D06E0D00F8B506460D468F180024BD4280
:1053CC000CD0336815F8011B9B68304698470028B1
:1053DC0001DB0444F3E7002C08BF04462046F8BD6B
:1053EC0070B505460C46084649B101F06CFC2B68BB
:1053FC00024621462846DB68BDE87040184770BD60
:10540C0003689B68184730B58BB00B4600218DF8AC
:10541C002410012A98BF0A220DF12304B3FBF2F5E4
:10542C0005FB123303F0FF03092B94BF30333733E2
:10543C00DBB2214604F801392B46002DEED1FFF7E3
:10544C00CFFF0BB030BD10B50446FFF786FA2046EF
:10545C0010BD00000348044A04490023836000F097
:10546C0037BC00BFBCE5032090E3032053540D0070
:10547C0010B5044601700846FFF7B6F800236360C8
:10548C00204610BD0078FFF7B7B800002DE9F14FAA
:10549C0059EC108B07460E460022002310EE100A22
:1054AC00494601F0ABF928B109F1004399462D2387
:1054BC0033700136002301240A22D9B28F4202D95B
:1054CC0054430133F9E7204600F0C0FE42464B46F8
:1054DC0000F022FF82468B4601F0F0F980468946A7
:1054EC0000F0E4FE02460B465046594600F060FDC3
:1054FC000022174B01F096F918B118F1010849F187
:10550C000009E51722462B464046494601F0BEF9F4
:10551C0001230A22314600F0A2FAAFB1304601F065
:10552C00D2FB2E2333540130064422462B464046F0
:10553C00494601F0ABF93B46104631460A2201B010
:10554C00BDE8F04F00F08BBA01B0BDE8F08F00BFA2
:10555C000000E03F10B504460068FFF779F92046DB
:10556C0010BD10B50446006808B1FFF771F90023AF
:10557C002360A360636010BD38B504460D46006817
:10558C000131FFF76DF910B184E82100012038BD1D
:10559C0010B50368044613B143688B4207D220460A
:1055AC00FFF7EAFF20B1A3680BB922681370012042
:1055BC0010BD70B50E46114604461546FFF7E8FFC0
:1055CC0018B92046FFF7CDFF09E02A463146A56001
:1055DC00206801F019FB2268A3680021D1542046F1
:1055EC0070BD38B5002304460360436083600373C9
:1055FC000D4639B1084601F066FB294602462046A5
:10560C00FFF7D7FF204638BD38B5054600680C4675
:10561C0060B16A688B689A4206D3096801F030FB66
:10562C00A368AB6000230AE0FFF712F923682B6034
:10563C0063686B60A368AB60002323606360A36046
:10564C0038BD884210B50B46044607D0096819B11D
:10565C009A68FFF7AEFF01E0FFF783FF204610BD0D
:10566C0010B5002304460360436083600373FFF7A7
:10567C00E8FF204610BD884210B5044601D0FFF764
:10568C00C3FF204610BD38B505460C4641B108464F
:10569C0001F019FB214602462846FFF78AFF01E07C
:1056AC00FFF75FFF284638BD30B500238BB0036091
:1056BC00436083600373044610EE100ACDB200F011
:1056CC00D7FD41EC100B01A92846FFF7DFFE01A91D
:1056DC002046FFF7D8FF20460BB030BD70B504460E
:1056EC000E4609B9002070BD6AB18368D5182946E9
:1056FC00FFF74EFF0028F5D02068A3683146184408
:10570C0001F0BEFAA560012070BD10B58A68096869
:10571C000446FFF7E3FF10B92046FFF722FF2046AF
:10572C0010BD38B504460D4641B1084601F0CBFA20
:10573C00294602462046FFF7D1FF10B92046FFF755
:10574C0010FF204638BD10B50446006818B1FFF7AD
:10575C007FF80023236010BD10B50446FFF7F3FF5C
:10576C00204610BD10B5094C00204FF6FF73206089
:10577C00A080A07120816381FEF7C6FF2046044AF9
:10578C000449BDE8104000F0A3BA00BFCCE50320EB
:10579C0090E3032065570D00024B1A68024B1A6008
:1057AC00704700BF28E30320D8E5032070474174FD
:1057BC00704708B5007CFEF75FFF20EAE07008BD7B
:1057CC0008B5007CFEF730FF20EAE07008BD08B594
:1057DC00007CFEF739FF30EA200028BF4FF0FF3085
:1057EC0008BD08B5007CFEF727FF30EA200028BF73
:1057FC004FF0FF3008BD007CFEF72EBF10B5142112
:10580C00044600F06AFA204610BD70B5457C04468B
:10581C000E4625B9007CFEF72FFF002805DD31462A
:10582C00207CBDE87040FEF7F7BE284670BD000036
:10583C0010B5044608461146002262604FF47A7295
:10584C00A260054A22600122207462741A46FEF797
:10585C00DBFE204610BD00BF306F0D00007CFEF754
:10586C0003BF000038B50C4D296811F0010411D1AB
:10587C002846FEF710FC68B1084A094B0948214636
:10588C00FFF7D6FF2846FEF70BFC074A07490548E9
:10589C0000F01EFA034838BD74E6032078E60320B6
:1058AC00F0E50320DCE5032090E30320B9570D005D
:1058BC0041747047704708B50021007CFEF704FF67
:1058CC0030EA200028BF4FF0FF3008BD08B5012199
:1058DC00007CFEF7F9FE30EA200028BF4FF0FF30C5
:1058EC0008BD08B5007CFEF7E7FE20EAE07008BDB5
:1058FC0008B5007CFEF7D8FE20EAE07008BD007CFD
:10590C00FEF7F2BE10B51421044600F0E6F920466D
:10591C0010BD38B50446007C0D46FEF7CDFE0028C0
:10592C0001DC607C28B12946207CFEF7D5FE20EAFC
:10593C00E07038BD10B50446002363604FF47A73F1
:10594C00A360054B23600123084621746374114640
:10595C00FEF79AFE204610BD606F0D000022007C01
:10596C00FEF79ABE10B514220446002101F057F937
:10597C00204610BD30B50E4D87B001A8FFF7F2FFE1
:10598C00296811F0010410D12846FEF784FB60B1A0
:10599C0001AA21460748FFF7CDFF2846FEF780FBFA
:1059AC00054A0649034800F093F9024807B030BD98
:1059BC00FCE6032000E7032090E30320C1580D0010
:1059CC00002211464068FEF703BF002211464068D2
:1059DC00FEF71EBF002211464068FEF729BF0022C9
:1059EC004068FEF71DBF002281F001014068FEF700
:1059FC0007BF00231A4619464068FEF7F9BE00237C
:105A0C001A4619464068FEF7EBBE00221146406864
:105A1C00FEF7CEBE002202214068FEF7D1BE002365
:105A2C001A464068FEF7BCBE024B04225A60024A7A
:105A3C001A60704714E70320906F0D0010B50446F0
:105A4C0001F041F9013823182046984206D2027819
:105A5C00197800F8011B03F80129F6E710BD70B5A1
:105A6C000C46911E222920D82546294610B92344DC
:105A7C0030220EE0B0FBF2F602FB1600C1B205F8C4
:105A8C00011B092894BF3031573105F8011C3046F1
:105A9C00EBE7994202D201F8012BFAE700232046EA
:105AAC000B70FFF7CBFF204670BD002070BD0000CF
:105ABC0008B50C4B33B1FFF75DFF03681B699847C2
:105ACC00002809DC084B63B1FFF7CCFE03681B69A7
:105ADC009847002803DC08BDAFF30080F2E7AFF372
:105AEC00008008BD000000000000000008B5FFF7B2
:105AFC00DFFFFEF701FD014B186008BD30E7032006
:105B0C000248034A0349121A01F07EB800F403203C
:105B1C0004F4032068700D0007B5002300931A46A7
:105B2C006FF07701FEF71AFE03B05DF804FB00007E
:105B3C0007B543880A2B08D0502B09D1094B1B6899
:105B4C003BB103B05DF804EB1847FFF7E5FF06E047
:105B5C00002300931A466FF07701FEF7FFFD03B0A8
:105B6C005DF804FB1CE7032038B5104C104D23687E
:105B7C00AB42104B0CBF012200221A7002D0FFF76F
:105B8C00BFFF2560FEF7A8FC044601F051F80A4B54
:105B9C0013B12046AFF3008000210748FEF7F8FD53
:105BAC0000210648BDE83840FEF7CEBD00F40320C6
:105BBC001E1C279A20E70320000000003D5B0D000F
:105BCC0070B5184E316811F0010504460AD1304603
:105BDC00FEF761FA30B129461348FFF749FC30460D
:105BEC00FEF75EFA1048FFF74DFC28B1A4F10B0349
:105BFC00022B01D8002070BD00F044F8FFF7F6F935
:105C0C0008B1012CF6D9FFF72DFEFFF727FE18B1CE
:105C1C00A4F10903012BEDD9232C8CBF002001200A
:105C2C0070BD00BF24E7032028E70320232838B5E4
:105C3C0004460D460AD8FF2908D0FFF7C1FF28B14A
:105C4C0029462046BDE83840FEF766BC38BD00004A
:105C5C0070B5044614252A46094E002100F0DFFFDA
:105C6C00258020253146A5602561284600F04FF897
:105C7C0031466060284600F04AF8E060204670BD6E
:105C8C00BC6F0D0030B50E4D296811F0010487B0C2
:105C9C0013D12846FEF7FFF978B101A8FFF7D8FF1A
:105CAC0001AA21460748FFF78FF92846FEF7F8F9B5
:105CBC00054A0649034800F00BF8024807B030BD0E
:105CCC0034E7032038E7032090E303207D4F0D00D9
:105CDC000B460146184600F089BFFEF7D8B9000004
:105CEC00024B1868BFF35F8F704700BF4CE703206F
:105CFC0010B5002814BF044601242046FEF7A0FD71
:105D0C0020B9FFF7EDFF08B18047F6E710BDFFF7AC
:105D1C00EFBF08B5FEF7ACFD244B1A68D0075CBF8B
:105D2C0001221A60224B1A68D1075CBF01221A604B
:105D3C00204B1A68D2075CBF01221A601E4B1A68EE
:105D4C00D0075CBF01221A601C4B1A68D1075CBFDC
:105D5C0001221A601A4B1A68D2075CBF01221A6022
:105D6C00184B1A68D0075CBF01221A60164B1A68D0
:105D7C00D1075CBF01221A60144B1A68D2075CBFB2
:105D8C0001221A60124B1A68D0075CBF01221A60FC
:105D9C00104B1A68D1075CBF01221A600E4B1A68AF
:105DAC00D2075CBF01221A60704700BF7CE703205A
:105DBC0078E7032074E7032070E703206CE70320E7
:105DCC0068E7032064E7032060E703205CE7032017
:105DDC0058E7032054E7032050E70320184B1A68B8
:105DEC00D1075CBF01221A60164B1A68D2075CBF40
:105DFC0001221A60144B1A68D0075CBF01221A608A
:105E0C00124B1A68D1075CBF01221A60104B1A683A
:105E1C00D2075CBF01221A600E4B1A68D0075CBF18
:105E2C0001221A600C4B1A68D1075CBF01221A6060
:105E3C000A4B1A68D2075CBF01221A60704700BF78
:105E4C009CE7032098E7032094E7032090E70320C6
:105E5C008CE7032088E7032084E7032080E70320F6
:105E6C00184B1A68D1075CBF01221A60164B1A68CE
:105E7C00D2075CBF01221A60144B1A68D0075CBFB2
:105E8C0001221A60124B1A68D1075CBF01221A60FA
:105E9C00104B1A68D2075CBF01221A600E4B1A68AD
:105EAC00D0075CBF01221A600C4B1A68D1075CBF8B
:105EBC0001221A600A4B1A68D2075CBF01221A60D1
:105ECC00704700BFBCE70320B8E70320B4E703200A
:105EDC00B0E70320ACE70320A8E70320A4E70320E6
:105EEC00A0E70320244B1A68D0075CBF01221A607C
:105EFC00224B1A68D1075CBF01221A60204B1A682A
:105F0C00D2075CBF01221A601E4B1A68D0075CBF17
:105F1C0001221A601C4B1A68D1075CBF01221A605F
:105F2C001A4B1A68D2075CBF01221A60184B1A6808
:105F3C00D0075CBF01221A60164B1A68D1075CBFF0
:105F4C0001221A60144B1A68D2075CBF01221A6036
:105F5C00124B1A68D0075CBF01221A60104B1A68EA
:105F6C00D1075CBF01221A600E4B1A68D2075CBFC6
:105F7C0001221A60704700BFECE70320E8E703201A
:105F8C00E4E70320E0E70320DCE70320D8E7032065
:105F9C00D4E70320D0E70320CCE70320C8E7032095
:105FAC00C4E70320C0E7032081F0004102E000BFFA
:105FBC0083F0004330B54FEA41044FEA430594EABD
:105FCC00050F08BF90EA020F1FBF54EA000C55EAF8
:105FDC00020C7FEA645C7FEA655C00F0E2804FEAC9
:105FEC005454D4EB5555B8BF6D420CDD2C4480EAAB
:105FFC00020281EA030382EA000083EA010180EADB
:10600C00020281EA0303362D88BF30BD11F0004F28
:10601C004FEA01314FF4801C4CEA113102D040425E
:10602C0061EB410113F0004F4FEA03334CEA133399
:10603C0002D0524263EB430394EA050F00F0A780B1
:10604C00A4F10104D5F1200E0DDB02FA0EFC22FAAC
:10605C0005F2801841F1000103FA0EF2801843FAA0
:10606C0005F359410EE0A5F120050EF1200E012A91
:10607C0003FA0EFC28BF4CF0020C43FA05F3C018CF
:10608C0051EBE37101F0004507D54FF0000EDCF148
:10609C00000C7EEB00006EEB0101B1F5801F1BD3F1
:1060AC00B1F5001F0CD349085FEA30004FEA3C0CF5
:1060BC0004F101044FEA445212F5800F80F09A80EB
:1060CC00BCF1004F08BF5FEA500C50F1000041EBEF
:1060DC00045141EA050130BD5FEA4C0C404141EBF3
:1060EC00010111F4801FA4F10104E9D191F0000F1A
:1060FC0004BF01460020B1FA81F308BF2033A3F19D
:10610C000B03B3F120020CDA0C3208DD02F1140C93
:10611C00C2F10C0201FA0CF021FA02F10CE002F1CE
:10612C001402D8BFC2F1200C01FA02F120FA0CFCC7
:10613C00DCBF41EA0C019040E41AA2BF01EB045110
:10614C00294330BD6FEA04041F3C1CDA0C340EDC0E
:10615C0004F11404C4F1200220FA04F001FA02F351
:10616C0040EA030021FA04F345EA030130BDC4F10F
:10617C000C04C4F1200220FA02F001FA04F340EA04
:10618C000300294630BD21FA04F0294630BD94F0B5
:10619C00000F83F4801306BF81F480110134013D9C
:1061AC004EE77FEA645C18BF7FEA655C29D094EA0D
:1061BC00050F08BF90EA020F05D054EA000C04BF8B
:1061CC001946104630BD91EA030F1EBF0021002076
:1061DC0030BD5FEA545C05D14000494128BF41F015
:1061EC00004130BD14F580043CBF01F5801130BD79
:1061FC0001F0004545F0FE4141F470014FF0000004
:10620C0030BD7FEA645C1ABF194610467FEA655CB4
:10621C001CBF0B46024650EA013406BF52EA033556
:10622C0091EA030F41F4002130BD00BF90F0000F44
:10623C0004BF0021704730B54FF4806404F1320480
:10624C004FF000054FF0000150E700BF90F0000F39
:10625C0004BF0021704730B54FF4806404F1320460
:10626C0010F0004548BF40424FF000013EE700BF30
:10627C0042004FEAE2014FEA31014FEA02701FBFC0
:10628C0012F07F4393F07F4F81F06051704792F092
:10629C00000F14BF93F07F4F704730B54FF460740C
:1062AC0001F0004521F0004120E700BF50EA010257
:1062BC0008BF704730B54FF000050AE050EA010204
:1062CC0008BF704730B511F0004502D5404261EB74
:1062DC0041014FF4806404F132045FEA915C3FF4B5
:1062EC00DCAE4FF003025FEADC0C18BF03325FEA4E
:1062FC00DC0C18BF033202EBDC02C2F1200300FA03
:10630C0003FC20FA02F001FA03FE40EA0E0021FA27
:10631C0002F11444C1E600BF70B54FF0FF0C4CF411
:10632C00E06C1CEA11541DBF1CEA135594EA0C0FC7
:10633C0095EA0C0F00F0DEF82C4481EA030621EA02
:10634C004C5123EA4C5350EA013518BF52EA03353D
:10635C0041F4801143F4801338D0A0FB02CE4FF0EF
:10636C000005E1FB02E506F00042E0FB03E54FF01F
:10637C000006E1FB03569CF0000F18BF4EF0010E17
:10638C00A4F1FF04B6F5007F64F5407404D25FEA13
:10639C004E0E6D4146EB060642EAC62141EA5551C6
:1063AC004FEAC52040EA5E504FEACE2EB4F1FD0C08
:1063BC0088BFBCF5E06F1ED8BEF1004F08BF5FEA86
:1063CC00500E50F1000041EB045170BD06F0004638
:1063DC0046EA010140EA020081EA0301B4EB5C04E5
:1063EC00C2BFD4EB0C0541EA045170BD41F48011DD
:1063FC004FF0000E013C00F3AB8014F1360FDEBF02
:10640C00002001F0004170BDC4F10004203C35DADD
:10641C000C341BDC04F11404C4F1200500FA05F360
:10642C0020FA04F001FA05F240EA020001F0004201
:10643C0021F0004110EBD37021FA04F642EB060177
:10644C005EEA430E08BF20EAD37070BDC4F10C04A1
:10645C00C4F1200500FA04F320FA05F001FA04F265
:10646C0040EA020001F0004110EBD37041F1000151
:10647C005EEA430E08BF20EAD37070BDC4F120055C
:10648C0000FA05F24EEA020E20FA04F301FA05F2C4
:10649C0043EA020321FA04F001F0004121FA04F26C
:1064AC0020EA020000EBD3705EEA430E08BF20EA3C
:1064BC00D37070BD94F0000F0FD101F00046400076
:1064CC0041EB010111F4801F08BF013CF7D041EAF8
:1064DC00060195F0000F18BF704703F000465200FC
:1064EC0043EB030313F4801F08BF013DF7D043EACD
:1064FC000603704794EA0C0F0CEA135518BF95EA83
:10650C000C0F0CD050EA410618BF52EA4306D1D109
:10651C0081EA030101F000414FF0000070BD50EA28
:10652C00410606BF1046194652EA430619D094EAB2
:10653C000C0F02D150EA013613D195EA0C0F05D19C
:10654C0052EA03361CBF104619460AD181EA0301F0
:10655C0001F0004141F0FE4141F470014FF00000A8
:10656C0070BD41F0FE4141F4780170BD70B54FF043
:10657C00FF0C4CF4E06C1CEA11541DBF1CEA1355C3
:10658C0094EA0C0F95EA0C0F00F0A7F8A4EB0504A5
:10659C0081EA030E52EA03354FEA013100F088809C
:1065AC004FEA03334FF0805545EA131343EA126365
:1065BC004FEA022245EA111545EA10654FEA00261A
:1065CC000EF000419D4208BF964244F1FD0404F5D3
:1065DC00407402D25B084FEA3202B61A65EB03052F
:1065EC005B084FEA32024FF480104FF4002CB6EBEC
:1065FC00020E75EB030E22BFB61A754640EA0C006C
:10660C005B084FEA3202B6EB020E75EB030E22BFAB
:10661C00B61A754640EA5C005B084FEA3202B6EBEC
:10662C00020E75EB030E22BFB61A754640EA9C00AB
:10663C005B084FEA3202B6EB020E75EB030E22BF7B
:10664C00B61A754640EADC0055EA060E18D04FEA39
:10665C00051545EA16754FEA06164FEAC30343EAD9
:10666C0052734FEAC2025FEA1C1CC0D111F4801FA6
:10667C000BD141EA00014FF000004FF0004CB6E79F
:10668C0011F4801F04BF01430020B4F1FD0C88BF3E
:10669C00BCF5E06F3FF6AFAEB5EB030C04BFB6EB49
:1066AC00020C5FEA500C50F1000041EB045170BD3C
:1066BC000EF0004E4EEA113114EB5C04C2BFD4EB69
:1066CC000C0541EA045170BD41F480114FF0000EED
:1066DC00013C90E645EA060E8DE60CEA135594EA69
:1066EC000C0F08BF95EA0C0F3FF43BAF94EA0C0F6C
:1066FC000AD150EA01347FF434AF95EA0C0F7FF4E1
:10670C0025AF104619462CE795EA0C0F06D152EA34
:10671C0003353FF4FDAE1046194622E750EA410618
:10672C0018BF52EA43067FF4C5AE50EA41047FF429
:10673C000DAF52EA43057FF4EBAE12E74FF0FF3C8E
:10674C0006E000BF4FF0010C02E000BF4FF0010C5F
:10675C004DF804CD4FEA410C7FEA6C5C4FEA430CD8
:10676C0018BF7FEA6C5C1BD001B050EA410C0CBF27
:10677C0052EA430C91EA030F02BF90EA020F002089
:10678C00704710F1000F91EA030F58BF994208BFF0
:10679C0090422CBFD8176FEAE37040F001007047AD
:1067AC004FEA410C7FEA6C5C02D150EA013C07D104
:1067BC004FEA430C7FEA6C5CD6D152EA033CD3D04F
:1067CC005DF8040B704700BF8446104662468C4649
:1067DC001946634600E000BF01B5FFF7B7FF00287C
:1067EC0048BF10F1000F01BD4DF808EDFFF7F4FFA5
:1067FC000CBF012000205DF808FB00BF4DF808ED30
:10680C00FFF7EAFF34BF012000205DF808FB00BF52
:10681C004DF808EDFFF7E0FF94BF012000205DF874
:10682C0008FB00BF4DF808EDFFF7CEFF94BF012029
:10683C0000205DF808FB00BF4DF808EDFFF7C4FF22
:10684C0034BF012000205DF808FB00BF4A0011D2C4
:10685C0012F5001211D20DD56FF47873B3EB6252AE
:10686C000ED44FEAC12343F0004343EA505323FABA
:10687C0002F070474FF00000704750EA013002D12F
:10688C004FF0FF3070474FF00000704753B94AB9D2
:10689C00002908BF00281CBF4FF0FF314FF0FF301C
:1068AC0000F0A2B9ADF1080C6DE904CE00F02AF8A5
:1068BC00DDF804E0DDE9022304B07047D0B5002216
:1068CC000E4B06460F46FFF727FDFFF7BFFF0446AA
:1068DC00FFF7ACFC00220A4BFFF71EFD02460B46ED
:1068EC0030463946FFF764FBFFF7B0FF2346002222
:1068FC0042EA000210461946D0BD00BF0000F03D30
:10690C000000F0412DE9F0478C460E460446089DE8
:10691C00002B50D18A4217466CD9B2FA82FEBEF1D6
:10692C00000F0BD0CEF1200420FA04F401FA0EF67D
:10693C0044EA060C02FA0EF700FA0EF44FEA174975
:10694C00220CBCFBF9F01FFA87F809FB10C642EACF
:10695C00064600FB08F3B34209D9F61900F1FF32E1
:10696C0080F02281B34240F21F8102383E44F61A75
:10697C00A2B2B6FBF9F309FB136642EA064403FB29
:10698C0008F8A04509D9E41903F1FF3280F00A8117
:10699C00A04540F20781023B3C44C8EB040443EAA7
:1069AC0000400021002D62D024FA0EF400232C604C
:1069BC006B60BDE8F0878B4207D9002D55D00021C4
:1069CC0085E841000846BDE8F087B3FA83F1002959
:1069DC0040F09080B34202D3824200F2F880841AD5
:1069EC0066EB03060120B446002D40D085E810105C
:1069FC00BDE8F08712B90127B7FBF2F7B7FA87FEAB
:106A0C00BEF1000F35D1F31B4FEA17481FFA87FC74
:106A1C000121B3FBF8F0220C08FB103642EA0646C3
:106A2C000CFB00F3B34207D9F61900F1FF3202D286
:106A3C00B34200F2CE801046F61AA2B2B6FBF8F3BF
:106A4C0008FB136642EA06440CFB03FCA44507D979
:106A5C00E41903F1FF3202D2A44500F2B5801346CB
:106A6C00CCEB040443EA00409CE729462846BDE8E9
:106A7C00F087CEF1200106FA0EF307FA0EF720FA92
:106A8C0001F94FEA1748CE4049EA0309B6FBF8FA78
:106A9C004FEA194408FB1A661FFA87FC44EA0643BE
:106AAC000AFB0CF29A4200FA0EF40AD9DB190AF12D
:106ABC00FF3180F087809A4240F28480AAF1020A6A
:106ACC003B449B1A1FFA89F9B3FBF8F108FB11330D
:106ADC0049EA034301FB0CF69E4207D9DB1901F18D
:106AEC00FF326BD29E4269D902393B449B1B41EA6F
:106AFC000A418EE7C1F1200E22FA0EF48B4023439B
:106B0C0020FA0EF706FA01F44FEA134C26FA0EF6A9
:106B1C003C43B6FBFCF9270C0CFB19661FFA83F8F7
:106B2C0047EA064609FB08F7B74202FA01F200FAF7
:106B3C0001FA08D9F61809F1FF3041D2B7423FD912
:106B4C00A9F102091E44F61BA0B2B6FBFCF40CFB27
:106B5C00146640EA064704FB08F8B84507D9FF1845
:106B6C0004F1FF3028D2B84526D9023C1F4444EA30
:106B7C000940C8EB0707A0FB02894F4544464E4627
:106B8C0014D329D065B3BAEB040367EB060707FAF5
:106B9C000EFECB40CF404EEA030385E8880000216F
:106BAC00BDE8F0871346F8E61046E0E6B8EB0204C1
:106BBC0069EB03060138E5E70446D8E7114695E78B
:106BCC008146C0E78A467CE7023B3C4448E70846DE
:106BDC000AE702383E442FE7C245E7D33E46D1E7E9
:106BEC002946BDE8F08700BF704700BF10B5054CC3
:106BFC0013462CB10A4601460220AFF3008010BDAB
:106C0C00204610BD0000000010B5431E0A449142FE
:106C1C0004D011F8014B03F8014FF8E710BD024402
:106C2C000346934202D003F8011BFAE770470000B9
:106C3C0038B5124B1C68A36B0546D3B91820FDF769
:106C4C00FFFD43F20E33A06303804AF6CD3343803D
:106C5C0041F2342383804EF26D63C3804DF6EC63B6
:106C6C000381052343810B23838101220023C0E987
:106C7C000423A36B00221D615A6138BD8CE30320F1
:106C8C00034611F8012B03F8012B002AF9D17047A8
:106C9C00024B0146186800F003B800BF8CE30320D8
:106CAC0070B5064608460C4600F00DF8451C294602
:106CBC003046FDF7E5FD064618B12A462146FFF79A
:106CCC00A3FF304670BD034613F8012B002AFBD1FD
:106CDC00181A0138704700001D400D0059400D0076
:106CEC0085400D0089400D00000000007B2274657A
:106CFC006D7065726174757265223A002C20226881
:106D0C00756D6964697479223A007D0074656D70E3
:106D1C00657261747572650000000000000000006F
:106D2C0049490D004F490D00A5490D005D490D0065
:106D3C004B490D0000000000000000005F4F0D00EB
:106D4C00554F0D004B4F0D00414F0D00354F0D00B1
:106D5C00294F0D001D4F0D00154F0D000B4F0D0051
:106D6C00014F0D00E1520D0000000000000000007A
:106D7C007D4F0D00C74F0D009F4F0D007F4F0D0035
:106D8C00A74F0D00AF4F0D00B74F0D00BF4F0D00BB
:106D9C00000000000000000019500D0009500D000B
:106DAC000B500D00626175640053657269616C0073
:106DBC0053657269616C3100747970650070617231
:106DCC00616D00636D6400696400686E64007374C7
:106DDC00726D0066696C74006C766C00616464485A
:106DEC00616E646C65720072656D6F766548616E7C
:106DFC00646C657200656E756D48616E646C65726D
:106E0C0073004A534F4E53747265616D4C6F6748F3
:106E1C00616E646C65720061707000253031307584
:106E2C0020005D20002564002C200028293A200039
:106E3C00205B00636F6465203D200025690064655C
:106E4C007461696C73203D20000D0A0066006C6E45
:106E5C0000666E00636F64650064657461696C0044
:106E6C006E6F6E6500747261636500696E666F00AB
:106E7C007761726E006572726F720070616E696319
:106E8C0000616C6C000000000000000000000000BD
:106E9C005B510D0051510D0047510D003D510D003E
:106EAC0031510D0025510D0019510D0011510D00DE
:106EBC0007510D00FD500D00E1520D0000000000C7
:106ECC000000000079520D0083520D008D520D0010
:106EDC0097520D00A1520D00AD520D00B9520D008C
:106EEC00C5520D00CD520D00D7520D00E1520D00D0
:106EFC005A00252B3033643A253032750025592D34
:106F0C00256D2D25645425483A254D3A2553257A6F
:106F1C000061736374696D6500000000000000007F
:106F2C0000000000B9570D0009580D0017580D004E
:106F3C00C1530D00CD570D00EF570D00DB570D0061
:106F4C0003580D00BB570D00BF570D00000000008B
:106F5C0000000000C1580D0011590D001F590D0003
:106F6C00C1530D00FD580D00C3580D00D9580D002C
:106F7C000B590D00EF580D00BD580D00000000001E
:106F8C00000000002B5A0D00215A0D00175A0D005D
:106F9C00CD590D000B5A0D00FF590D00F3590D0082
:106FAC00EB590D00E1590D00D7590D00E1520D00C0
:106FBC0000000000000000000000000000000000C5
:106FCC0000000000000000000000000000000000B5
:106FDC0000000000000000000000000000000000A5
:106FEC000000000000000000000000000000000095
:106FFC000000000000000000000000000000000085
:10700C000000000000000000000000000000000074
:10701C000000000043000000A9410D0085440D0054
:10702C0021490D00694F0D00ED500D0029520D0046
:10703C00AD530D0061540D0071570D00A5570D0097
:10704C00355A0D00255D0D00E95D0D006D5E0D00DE
:04705C00F15E0D00D4
:08706000B0F8FF7F0100000001
:047068000000000024
:10706C001D6F0D0000000000C06F0D00E06F0D00E3
:10707C0000700D0000000000000000000000000087
:10708C000000000020700D00000000000000000057
:10709C0000000000000000000000000000000000E4
:1070AC0000000000000000000000000000000000D4
:1070BC0000000000000000000000000000000000C4
:0870CC00000000002CE303208A
:1070D400FFFFFFFF00000102030405060708090A79
:1070E4000B0C0D0E0F101112131415161718191A74
:0870F4001B1C1D1E1F202800BB
:0470FC00785634127C
:04000003D000401CCD
:00000001FF
